{
  "_format": "hh-sol-artifact-1",
  "contractName": "DaoPass",
  "sourceName": "contracts/DaoPass.sol",
  "abi": [
    {
      "inputs": [],
      "stateMutability": "nonpayable",
      "type": "constructor"
    },
    {
      "anonymous": false,
      "inputs": [
        {
          "indexed": true,
          "internalType": "address",
          "name": "_owner",
          "type": "address"
        },
        {
          "indexed": true,
          "internalType": "address",
          "name": "_approved",
          "type": "address"
        },
        {
          "indexed": true,
          "internalType": "uint256",
          "name": "_tokenId",
          "type": "uint256"
        }
      ],
      "name": "Approval",
      "type": "event"
    },
    {
      "anonymous": false,
      "inputs": [
        {
          "indexed": true,
          "internalType": "address",
          "name": "_owner",
          "type": "address"
        },
        {
          "indexed": true,
          "internalType": "address",
          "name": "_operator",
          "type": "address"
        },
        {
          "indexed": false,
          "internalType": "bool",
          "name": "_approved",
          "type": "bool"
        }
      ],
      "name": "ApprovalForAll",
      "type": "event"
    },
    {
      "anonymous": false,
      "inputs": [
        {
          "indexed": true,
          "internalType": "uint256",
          "name": "_tokenId",
          "type": "uint256"
        },
        {
          "indexed": true,
          "internalType": "address",
          "name": "_operator",
          "type": "address"
        },
        {
          "indexed": false,
          "internalType": "uint256",
          "name": "_value",
          "type": "uint256"
        }
      ],
      "name": "ApprovalValue",
      "type": "event"
    },
    {
      "anonymous": false,
      "inputs": [
        {
          "indexed": true,
          "internalType": "address",
          "name": "previousOwner",
          "type": "address"
        },
        {
          "indexed": true,
          "internalType": "address",
          "name": "newOwner",
          "type": "address"
        }
      ],
      "name": "OwnershipTransferred",
      "type": "event"
    },
    {
      "anonymous": false,
      "inputs": [
        {
          "indexed": true,
          "internalType": "address",
          "name": "metadataDescriptor",
          "type": "address"
        }
      ],
      "name": "SetMetadataDescriptor",
      "type": "event"
    },
    {
      "anonymous": false,
      "inputs": [
        {
          "indexed": true,
          "internalType": "uint256",
          "name": "_tokenId",
          "type": "uint256"
        },
        {
          "indexed": true,
          "internalType": "uint256",
          "name": "_oldSlot",
          "type": "uint256"
        },
        {
          "indexed": true,
          "internalType": "uint256",
          "name": "_newSlot",
          "type": "uint256"
        }
      ],
      "name": "SlotChanged",
      "type": "event"
    },
    {
      "anonymous": false,
      "inputs": [
        {
          "indexed": true,
          "internalType": "address",
          "name": "_from",
          "type": "address"
        },
        {
          "indexed": true,
          "internalType": "address",
          "name": "_to",
          "type": "address"
        },
        {
          "indexed": true,
          "internalType": "uint256",
          "name": "_tokenId",
          "type": "uint256"
        }
      ],
      "name": "Transfer",
      "type": "event"
    },
    {
      "anonymous": false,
      "inputs": [
        {
          "indexed": true,
          "internalType": "uint256",
          "name": "_fromTokenId",
          "type": "uint256"
        },
        {
          "indexed": true,
          "internalType": "uint256",
          "name": "_toTokenId",
          "type": "uint256"
        },
        {
          "indexed": false,
          "internalType": "uint256",
          "name": "_value",
          "type": "uint256"
        }
      ],
      "name": "TransferValue",
      "type": "event"
    },
    {
      "inputs": [
        {
          "internalType": "uint256",
          "name": "tokenId_",
          "type": "uint256"
        },
        {
          "internalType": "address",
          "name": "operator_",
          "type": "address"
        }
      ],
      "name": "allowance",
      "outputs": [
        {
          "internalType": "uint256",
          "name": "",
          "type": "uint256"
        }
      ],
      "stateMutability": "view",
      "type": "function"
    },
    {
      "inputs": [
        {
          "internalType": "address",
          "name": "to_",
          "type": "address"
        },
        {
          "internalType": "uint256",
          "name": "tokenId_",
          "type": "uint256"
        }
      ],
      "name": "approve",
      "outputs": [],
      "stateMutability": "payable",
      "type": "function"
    },
    {
      "inputs": [
        {
          "internalType": "uint256",
          "name": "tokenId_",
          "type": "uint256"
        },
        {
          "internalType": "address",
          "name": "to_",
          "type": "address"
        },
        {
          "internalType": "uint256",
          "name": "value_",
          "type": "uint256"
        }
      ],
      "name": "approve",
      "outputs": [],
      "stateMutability": "payable",
      "type": "function"
    },
    {
      "inputs": [
        {
          "internalType": "address",
          "name": "owner_",
          "type": "address"
        }
      ],
      "name": "balanceOf",
      "outputs": [
        {
          "internalType": "uint256",
          "name": "balance",
          "type": "uint256"
        }
      ],
      "stateMutability": "view",
      "type": "function"
    },
    {
      "inputs": [
        {
          "internalType": "uint256",
          "name": "tokenId_",
          "type": "uint256"
        }
      ],
      "name": "balanceOf",
      "outputs": [
        {
          "internalType": "uint256",
          "name": "",
          "type": "uint256"
        }
      ],
      "stateMutability": "view",
      "type": "function"
    },
    {
      "inputs": [],
      "name": "blockId",
      "outputs": [],
      "stateMutability": "nonpayable",
      "type": "function"
    },
    {
      "inputs": [],
      "name": "contractURI",
      "outputs": [
        {
          "internalType": "string",
          "name": "",
          "type": "string"
        }
      ],
      "stateMutability": "view",
      "type": "function"
    },
    {
      "inputs": [
        {
          "internalType": "uint256",
          "name": "tokenId_",
          "type": "uint256"
        }
      ],
      "name": "getApproved",
      "outputs": [
        {
          "internalType": "address",
          "name": "",
          "type": "address"
        }
      ],
      "stateMutability": "view",
      "type": "function"
    },
    {
      "inputs": [],
      "name": "getSigner",
      "outputs": [
        {
          "internalType": "address",
          "name": "",
          "type": "address"
        }
      ],
      "stateMutability": "view",
      "type": "function"
    },
    {
      "inputs": [
        {
          "internalType": "address",
          "name": "owner_",
          "type": "address"
        },
        {
          "internalType": "address",
          "name": "operator_",
          "type": "address"
        }
      ],
      "name": "isApprovedForAll",
      "outputs": [
        {
          "internalType": "bool",
          "name": "",
          "type": "bool"
        }
      ],
      "stateMutability": "view",
      "type": "function"
    },
    {
      "inputs": [
        {
          "internalType": "address",
          "name": "",
          "type": "address"
        }
      ],
      "name": "isMinted",
      "outputs": [
        {
          "internalType": "bool",
          "name": "",
          "type": "bool"
        }
      ],
      "stateMutability": "view",
      "type": "function"
    },
    {
      "inputs": [],
      "name": "metadataDescriptor",
      "outputs": [
        {
          "internalType": "contract IERC3525MetadataDescriptor",
          "name": "",
          "type": "address"
        }
      ],
      "stateMutability": "view",
      "type": "function"
    },
    {
      "inputs": [],
      "name": "mintToken",
      "outputs": [],
      "stateMutability": "payable",
      "type": "function"
    },
    {
      "inputs": [],
      "name": "name",
      "outputs": [
        {
          "internalType": "string",
          "name": "",
          "type": "string"
        }
      ],
      "stateMutability": "view",
      "type": "function"
    },
    {
      "inputs": [],
      "name": "owner",
      "outputs": [
        {
          "internalType": "address",
          "name": "",
          "type": "address"
        }
      ],
      "stateMutability": "view",
      "type": "function"
    },
    {
      "inputs": [
        {
          "internalType": "uint256",
          "name": "tokenId_",
          "type": "uint256"
        }
      ],
      "name": "ownerOf",
      "outputs": [
        {
          "internalType": "address",
          "name": "owner_",
          "type": "address"
        }
      ],
      "stateMutability": "view",
      "type": "function"
    },
    {
      "inputs": [],
      "name": "queryId",
      "outputs": [
        {
          "internalType": "bool",
          "name": "",
          "type": "bool"
        }
      ],
      "stateMutability": "view",
      "type": "function"
    },
    {
      "inputs": [],
      "name": "renounceOwnership",
      "outputs": [],
      "stateMutability": "nonpayable",
      "type": "function"
    },
    {
      "inputs": [
        {
          "internalType": "address",
          "name": "from_",
          "type": "address"
        },
        {
          "internalType": "address",
          "name": "to_",
          "type": "address"
        },
        {
          "internalType": "uint256",
          "name": "tokenId_",
          "type": "uint256"
        }
      ],
      "name": "safeTransferFrom",
      "outputs": [],
      "stateMutability": "payable",
      "type": "function"
    },
    {
      "inputs": [
        {
          "internalType": "address",
          "name": "from_",
          "type": "address"
        },
        {
          "internalType": "address",
          "name": "to_",
          "type": "address"
        },
        {
          "internalType": "uint256",
          "name": "tokenId_",
          "type": "uint256"
        },
        {
          "internalType": "bytes",
          "name": "data_",
          "type": "bytes"
        }
      ],
      "name": "safeTransferFrom",
      "outputs": [],
      "stateMutability": "payable",
      "type": "function"
    },
    {
      "inputs": [
        {
          "internalType": "address",
          "name": "operator_",
          "type": "address"
        },
        {
          "internalType": "bool",
          "name": "approved_",
          "type": "bool"
        }
      ],
      "name": "setApprovalForAll",
      "outputs": [],
      "stateMutability": "nonpayable",
      "type": "function"
    },
    {
      "inputs": [
        {
          "internalType": "string",
          "name": "baseURI",
          "type": "string"
        }
      ],
      "name": "setBaseURI",
      "outputs": [],
      "stateMutability": "nonpayable",
      "type": "function"
    },
    {
      "inputs": [
        {
          "internalType": "address",
          "name": "addr",
          "type": "address"
        }
      ],
      "name": "setSigner",
      "outputs": [],
      "stateMutability": "nonpayable",
      "type": "function"
    },
    {
      "inputs": [
        {
          "internalType": "uint256",
          "name": "tokenId_",
          "type": "uint256"
        }
      ],
      "name": "slotOf",
      "outputs": [
        {
          "internalType": "uint256",
          "name": "",
          "type": "uint256"
        }
      ],
      "stateMutability": "view",
      "type": "function"
    },
    {
      "inputs": [
        {
          "internalType": "uint256",
          "name": "slot_",
          "type": "uint256"
        }
      ],
      "name": "slotURI",
      "outputs": [
        {
          "internalType": "string",
          "name": "",
          "type": "string"
        }
      ],
      "stateMutability": "view",
      "type": "function"
    },
    {
      "inputs": [
        {
          "internalType": "bytes4",
          "name": "interfaceId",
          "type": "bytes4"
        }
      ],
      "name": "supportsInterface",
      "outputs": [
        {
          "internalType": "bool",
          "name": "",
          "type": "bool"
        }
      ],
      "stateMutability": "view",
      "type": "function"
    },
    {
      "inputs": [],
      "name": "symbol",
      "outputs": [
        {
          "internalType": "string",
          "name": "",
          "type": "string"
        }
      ],
      "stateMutability": "view",
      "type": "function"
    },
    {
      "inputs": [
        {
          "internalType": "uint256",
          "name": "index_",
          "type": "uint256"
        }
      ],
      "name": "tokenByIndex",
      "outputs": [
        {
          "internalType": "uint256",
          "name": "",
          "type": "uint256"
        }
      ],
      "stateMutability": "view",
      "type": "function"
    },
    {
      "inputs": [
        {
          "internalType": "address",
          "name": "owner_",
          "type": "address"
        },
        {
          "internalType": "uint256",
          "name": "index_",
          "type": "uint256"
        }
      ],
      "name": "tokenOfOwnerByIndex",
      "outputs": [
        {
          "internalType": "uint256",
          "name": "",
          "type": "uint256"
        }
      ],
      "stateMutability": "view",
      "type": "function"
    },
    {
      "inputs": [
        {
          "internalType": "uint256",
          "name": "tokenId_",
          "type": "uint256"
        }
      ],
      "name": "tokenURI",
      "outputs": [
        {
          "internalType": "string",
          "name": "",
          "type": "string"
        }
      ],
      "stateMutability": "view",
      "type": "function"
    },
    {
      "inputs": [],
      "name": "totalSupply",
      "outputs": [
        {
          "internalType": "uint256",
          "name": "",
          "type": "uint256"
        }
      ],
      "stateMutability": "view",
      "type": "function"
    },
    {
      "inputs": [
        {
          "internalType": "uint256",
          "name": "fromTokenId_",
          "type": "uint256"
        },
        {
          "internalType": "address",
          "name": "to_",
          "type": "address"
        },
        {
          "internalType": "uint256",
          "name": "value_",
          "type": "uint256"
        }
      ],
      "name": "transferFrom",
      "outputs": [
        {
          "internalType": "uint256",
          "name": "",
          "type": "uint256"
        }
      ],
      "stateMutability": "payable",
      "type": "function"
    },
    {
      "inputs": [
        {
          "internalType": "address",
          "name": "from_",
          "type": "address"
        },
        {
          "internalType": "address",
          "name": "to_",
          "type": "address"
        },
        {
          "internalType": "uint256",
          "name": "tokenId_",
          "type": "uint256"
        }
      ],
      "name": "transferFrom",
      "outputs": [],
      "stateMutability": "payable",
      "type": "function"
    },
    {
      "inputs": [
        {
          "internalType": "uint256",
          "name": "fromTokenId_",
          "type": "uint256"
        },
        {
          "internalType": "uint256",
          "name": "toTokenId_",
          "type": "uint256"
        },
        {
          "internalType": "uint256",
          "name": "value_",
          "type": "uint256"
        }
      ],
      "name": "transferFrom",
      "outputs": [],
      "stateMutability": "payable",
      "type": "function"
    },
    {
      "inputs": [
        {
          "internalType": "address",
          "name": "newOwner",
          "type": "address"
        }
      ],
      "name": "transferOwnership",
      "outputs": [],
      "stateMutability": "nonpayable",
      "type": "function"
    },
    {
      "inputs": [],
      "name": "valueDecimals",
      "outputs": [
        {
          "internalType": "uint8",
          "name": "",
          "type": "uint8"
        }
      ],
      "stateMutability": "view",
      "type": "function"
    },
    {
      "inputs": [
        {
          "internalType": "uint256",
          "name": "proposalId",
          "type": "uint256"
        },
        {
          "internalType": "uint256",
          "name": "tokenId",
          "type": "uint256"
        }
      ],
      "name": "vote",
      "outputs": [],
      "stateMutability": "payable",
      "type": "function"
    },
    {
      "inputs": [
        {
          "internalType": "address",
          "name": "",
          "type": "address"
        },
        {
          "internalType": "uint256",
          "name": "",
          "type": "uint256"
        }
      ],
      "name": "voteProposal",
      "outputs": [
        {
          "internalType": "bool",
          "name": "",
          "type": "bool"
        }
      ],
      "stateMutability": "view",
      "type": "function"
    }
  ],
  "bytecode": "0x60806040523480156200001157600080fd5b506040518060400160405280600d81526020016c2230b7a830b9b9902a37b5b2b760991b815250604051806040016040528060048152602001632425a42760e11b81525060028260009081620000689190620001b0565b506001620000778382620001b0565b506002805460ff191660ff9290921691909117905550620000a190506200009b3390565b620000b9565b600a80546001600160a01b031916331790556200027c565b600980546001600160a01b038381166001600160a01b0319831681179093556040519116919082907f8be0079c531659141344cd1fd0a4f28419497f9722a3daafe3b4186f6b6457e090600090a35050565b634e487b7160e01b600052604160045260246000fd5b600181811c908216806200013657607f821691505b6020821081036200015757634e487b7160e01b600052602260045260246000fd5b50919050565b601f821115620001ab57600081815260208120601f850160051c81016020861015620001865750805b601f850160051c820191505b81811015620001a75782815560010162000192565b5050505b505050565b81516001600160401b03811115620001cc57620001cc6200010b565b620001e481620001dd845462000121565b846200015d565b602080601f8311600181146200021c5760008415620002035750858301515b600019600386901b1c1916600185901b178555620001a7565b600085815260208120601f198616915b828110156200024d578886015182559484019460019091019084016200022c565b50858210156200026c5787850151600019600388901b60f8161c191681555b5050505050600190811b01905550565b613260806200028c6000396000f3fe6080604052600436106102255760003560e01c80636c19e783116101235780639cc7f708116100ab578063e345e0bc1161006f578063e345e0bc14610612578063e8a3d48514610632578063e985e9c514610647578063f2fde38b14610694578063f9f2a7ce146106b457600080fd5b80639cc7f7081461058c578063a22cb465146105ac578063b384abef146105cc578063b88d4fde146105df578063c87b56dd146105f257600080fd5b80637ac3c02f116100f25780637ac3c02f14610508578063840f7113146105265780638cb0a511146105465780638da5cb5b1461055957806395d89b411461057757600080fd5b80636c19e7831461048757806370a08231146104a7578063715018a6146104c75780637a992dac146104dc57600080fd5b8063263f3e7e116101b157806342842e0e1161017557806342842e0e146103d95780634f6ccce7146103ec57806355f804b31461040c5780636352211e1461042c57806366e5f2c51461044c57600080fd5b8063263f3e7e1461033f5780632f745c591461035f578063310ed7f01461037f5780633e7e8669146103925780633f1be4d4146103b457600080fd5b806309c3dd87116101f857806309c3dd87146102ce5780630f485c02146102ee57806318160ddd1461030f5780632004ffd91461032457806323b872dd1461032c57600080fd5b806301ffc9a71461022a57806306fdde031461025f578063081812fc14610281578063095ea7b3146102b9575b600080fd5b34801561023657600080fd5b5061024a610245366004612958565b6106e4565b60405190151581526020015b60405180910390f35b34801561026b57600080fd5b50610274610787565b60405161025691906129c5565b34801561028d57600080fd5b506102a161029c3660046129d8565b610819565b6040516001600160a01b039091168152602001610256565b6102cc6102c7366004612a08565b61086b565b005b3480156102da57600080fd5b506102746102e93660046129d8565b6108f9565b6103016102fc366004612a32565b6109de565b604051908152602001610256565b34801561031b57600080fd5b50600554610301565b6102cc610a20565b6102cc61033a366004612a67565b610a9a565b34801561034b57600080fd5b5061030161035a3660046129d8565b610acb565b34801561036b57600080fd5b5061030161037a366004612a08565b610b13565b6102cc61038d366004612a93565b610bb4565b34801561039e57600080fd5b5060025460405160ff9091168152602001610256565b3480156103c057600080fd5b50336000908152600b602052604090205460ff1661024a565b6102cc6103e7366004612a67565b610bca565b3480156103f857600080fd5b506103016104073660046129d8565b610be5565b34801561041857600080fd5b506102cc610427366004612abf565b610c76565b34801561043857600080fd5b506102a16104473660046129d8565b610c8b565b34801561045857600080fd5b5061024a610467366004612a08565b600c60209081526000928352604080842090915290825290205460ff1681565b34801561049357600080fd5b506102cc6104a2366004612b31565b610d27565b3480156104b357600080fd5b506103016104c2366004612b31565b610d51565b3480156104d357600080fd5b506102cc610dd9565b3480156104e857600080fd5b506102cc336000908152600b60205260409020805460ff19166001179055565b34801561051457600080fd5b50600a546001600160a01b03166102a1565b34801561053257600080fd5b506008546102a1906001600160a01b031681565b6102cc610554366004612a32565b610ded565b34801561056557600080fd5b506009546001600160a01b03166102a1565b34801561058357600080fd5b50610274610e74565b34801561059857600080fd5b506103016105a73660046129d8565b610e83565b3480156105b857600080fd5b506102cc6105c7366004612b5a565b610ecb565b6102cc6105da366004612b91565b610eda565b6102cc6105ed366004612c22565b610f67565b3480156105fe57600080fd5b5061027461060d3660046129d8565b610f99565b34801561061e57600080fd5b5061030161062d366004612ccd565b61102b565b34801561063e57600080fd5b5061027461105f565b34801561065357600080fd5b5061024a610662366004612cf9565b6001600160a01b0391821660009081526007602090815260408083209390941682526002909201909152205460ff1690565b3480156106a057600080fd5b506102cc6106af366004612b31565b61114c565b3480156106c057600080fd5b5061024a6106cf366004612b31565b600b6020526000908152604090205460ff1681565b60006001600160e01b031982166301ffc9a760e01b148061071557506001600160e01b03198216630354d60560e61b145b8061073057506001600160e01b031982166380ac58cd60e01b145b8061074b57506001600160e01b031982166370b0048160e11b145b8061076657506001600160e01b0319821663780e9d6360e01b145b8061078157506001600160e01b03198216635b5e139f60e01b145b92915050565b60606000805461079690612d23565b80601f01602080910402602001604051908101604052809291908181526020018280546107c290612d23565b801561080f5780601f106107e45761010080835404028352916020019161080f565b820191906000526020600020905b8154815290600101906020018083116107f257829003601f168201915b5050505050905090565b6000610824826111c2565b60008281526006602052604090205460058054909190811061084857610848612d5d565b60009182526020909120600460069092020101546001600160a01b031692915050565b600061087682610c8b565b9050806001600160a01b0316836001600160a01b0316036108b25760405162461bcd60e51b81526004016108a990612d73565b60405180910390fd5b336001600160a01b03821614806108ce57506108ce8133610662565b6108ea5760405162461bcd60e51b81526004016108a990612db5565b6108f48383611213565b505050565b606060006109056112aa565b6008549091506001600160a01b031661096557600081511161093657604051806020016040528060008152506109d7565b80610940846112b9565b604051602001610951929190612e12565b6040516020818303038152906040526109d7565b600854604051633601bfc560e11b8152600481018590526001600160a01b0390911690636c037f8a906024015b600060405180830381865afa1580156109af573d6000803e3d6000fd5b505050506040513d6000823e601f3d908101601f191682016040526109d79190810190612e52565b9392505050565b60006109eb33858461134c565b60006109f6856113dc565b9050610a0d8482610a0688610acb565b60006113e6565b610a18858285611510565b949350505050565b336000908152600b602052604090205460ff1615610a6f5760405162461bcd60e51b815260206004820152600c60248201526b111d5c1b1a58d85d19481a5960a21b60448201526064016108a9565b336000818152600b60205260409020805460ff19166001908117909155610a979190806117c2565b50565b610aa433826117db565b610ac05760405162461bcd60e51b81526004016108a990612ec9565b6108f4838383611843565b6000610ad6826111c2565b600082815260066020526040902054600580549091908110610afa57610afa612d5d565b9060005260206000209060060201600101549050919050565b6000610b1e83610d51565b8210610b775760405162461bcd60e51b815260206004820152602260248201527f455243333532353a206f776e657220696e646578206f7574206f6620626f756e604482015261647360f01b60648201526084016108a9565b6001600160a01b0383166000908152600760205260409020805483908110610ba157610ba1612d5d565b9060005260206000200154905092915050565b610bbf33848361134c565b6108f4838383611510565b6108f483838360405180602001604052806000815250610f67565b6000610bf060055490565b8210610c4a5760405162461bcd60e51b815260206004820152602360248201527f455243333532353a20676c6f62616c20696e646578206f7574206f6620626f756044820152626e647360e81b60648201526084016108a9565b60058281548110610c5d57610c5d612d5d565b9060005260206000209060060201600001549050919050565b610c7e6119a4565b600d6108f4828483612f61565b6000610c96826111c2565b600082815260066020526040902054600580549091908110610cba57610cba612d5d565b60009182526020909120600360069092020101546001600160a01b0316905080610d225760405162461bcd60e51b8152602060048201526019602482015278115490cccd4c8d4e881a5b9d985b1a59081d1bdad95b881251603a1b60448201526064016108a9565b919050565b610d2f6119a4565b600a80546001600160a01b0319166001600160a01b0392909216919091179055565b60006001600160a01b038216610dbd5760405162461bcd60e51b815260206004820152602b60248201527f455243333532353a2062616c616e636520717565727920666f7220746865207a60448201526a65726f206164647265737360a81b60648201526084016108a9565b506001600160a01b031660009081526007602052604090205490565b610de16119a4565b610deb60006119fe565b565b6000610df884610c8b565b9050806001600160a01b0316836001600160a01b031603610e2b5760405162461bcd60e51b81526004016108a990612d73565b336001600160a01b0382161480610e475750610e478133610662565b610e635760405162461bcd60e51b81526004016108a990612db5565b610e6e848484611a50565b50505050565b60606001805461079690612d23565b6000610e8e826111c2565b600082815260066020526040902054600580549091908110610eb257610eb2612d5d565b9060005260206000209060060201600201549050919050565b610ed6338383611b88565b5050565b336000908152600c6020908152604080832085845290915290205460ff1615610f345760405162461bcd60e51b815260206004820152600c60248201526b416c726561647920766f746560a01b60448201526064016108a9565b336000908152600c602090815260408083208584529091529020805460ff19166001908117909155610ed6908290611c52565b610f7133836117db565b610f8d5760405162461bcd60e51b81526004016108a990612ec9565b610e6e84848484611c7f565b6060610fa4826111c2565b6000610fae6112aa565b6008549091506001600160a01b0316610ffa576000815111610fdf57604051806020016040528060008152506109d7565b80610fe9846112b9565b604051602001610951929190613021565b6008546040516344a5a61760e11b8152600481018590526001600160a01b039091169063894b4c2e90602401610992565b6000611036836111c2565b5060009182526004602090815260408084206001600160a01b0393909316845291905290205490565b6060600061106b6112aa565b6008549091506001600160a01b03166110cb57600081511161109c5760405180602001604052806000815250611146565b806110a630611cf2565b6040516020016110b7929190613050565b604051602081830303815290604052611146565b600860009054906101000a90046001600160a01b03166001600160a01b031663725fa09c6040518163ffffffff1660e01b8152600401600060405180830381865afa15801561111e573d6000803e3d6000fd5b505050506040513d6000823e601f3d908101601f191682016040526111469190810190612e52565b91505090565b6111546119a4565b6001600160a01b0381166111b95760405162461bcd60e51b815260206004820152602660248201527f4f776e61626c653a206e6577206f776e657220697320746865207a65726f206160448201526564647265737360d01b60648201526084016108a9565b610a97816119fe565b6111cb81611d08565b610a975760405162461bcd60e51b8152602060048201526019602482015278115490cccd4c8d4e881a5b9d985b1a59081d1bdad95b881251603a1b60448201526064016108a9565b60008181526006602052604090205460058054849290811061123757611237612d5d565b6000918252602090912060069091020160040180546001600160a01b0319166001600160a01b039283161790558190831661127182610c8b565b6001600160a01b03167f8c5be1e5ebec7d5bd14f71427d1e84f3dd0314c0f7b2291e5b200ac8c7c3b92560405160405180910390a45050565b6060600d805461079690612d23565b606060006112c683611d54565b600101905060008167ffffffffffffffff8111156112e6576112e6612bb3565b6040519080825280601f01601f191660200182016040528015611310576020820181803683370190505b5090508181016020015b600019016f181899199a1a9b1b9c1cb0b131b232b360811b600a86061a8153600a850494508461131a57509392505050565b6000611358838561102b565b905061136484846117db565b15801561137357506000198114155b15610e6e57818110156113c85760405162461bcd60e51b815260206004820152601f60248201527f455243333532353a20696e73756666696369656e7420616c6c6f77616e63650060448201526064016108a9565b610e6e83856113d785856130aa565b611a50565b6000610781611e2c565b6001600160a01b0384166114465760405162461bcd60e51b815260206004820152602160248201527f455243333532353a206d696e7420746f20746865207a65726f206164647265736044820152607360f81b60648201526084016108a9565b826000036114a05760405162461bcd60e51b815260206004820152602160248201527f455243333532353a2063616e6e6f74206d696e74207a65726f20746f6b656e496044820152601960fa1b60648201526084016108a9565b6114a983611d08565b156114f65760405162461bcd60e51b815260206004820152601d60248201527f455243333532353a20746f6b656e20616c7265616479206d696e74656400000060448201526064016108a9565b611501848484611e4b565b61150b8382611f11565b610e6e565b61151983611d08565b6115755760405162461bcd60e51b815260206004820152602760248201527f455243333532353a207472616e736665722066726f6d20696e76616c696420746044820152661bdad95b88125160ca1b60648201526084016108a9565b61157e82611d08565b6115d85760405162461bcd60e51b815260206004820152602560248201527f455243333532353a207472616e7366657220746f20696e76616c696420746f6b604482015264195b88125160da1b60648201526084016108a9565b6000838152600660205260408120546005805490919081106115fc576115fc612d5d565b906000526020600020906006020190506000600560066000868152602001908152602001600020548154811061163457611634612d5d565b9060005260206000209060060201905082826002015410156116ab5760405162461bcd60e51b815260206004820152602a60248201527f455243333532353a20696e73756666696369656e742062616c616e636520666f60448201526939103a3930b739b332b960b11b60648201526084016108a9565b80600101548260010154146117195760405162461bcd60e51b815260206004820152602e60248201527f455243333532353a207472616e7366657220746f20746f6b656e20776974682060448201526d191a5999995c995b9d081cdb1bdd60921b60648201526084016108a9565b8282600201600082825461172d91906130aa565b925050819055508281600201600082825461174891906130bd565b9091555050604051838152849086907f0b2aac84f3ec956911fd78eae5311062972ff949f38412e8da39069d9f068cc69060200160405180910390a361179f85858560405180602001604052806000815250611f96565b6117bb5760405162461bcd60e51b81526004016108a9906130d0565b5050505050565b6000806117cd611e2c565b9050610a18858286866113e6565b60006117e6826111c2565b60006117f183610c8b565b9050806001600160a01b0316846001600160a01b0316148061181857506118188185610662565b80610a185750836001600160a01b031661183184610819565b6001600160a01b031614949350505050565b826001600160a01b031661185682610c8b565b6001600160a01b0316146118b85760405162461bcd60e51b8152602060048201526024808201527f455243333532353a207472616e736665722066726f6d20696e76616c6964206f6044820152633bb732b960e11b60648201526084016108a9565b6001600160a01b03821661191c5760405162461bcd60e51b815260206004820152602560248201527f455243333532353a207472616e7366657220746f20746865207a65726f206164604482015264647265737360d81b60648201526084016108a9565b600061192782610acb565b9050600061193483610e83565b9050611941600084611213565b61194a8361211c565b61195485846121b8565b61195e84846122d9565b82846001600160a01b0316866001600160a01b03167fddf252ad1be2c89b69c2b068fc378daa952ba7f163c4a11628f55a4df523b3ef60405160405180910390a46117bb565b6009546001600160a01b03163314610deb5760405162461bcd60e51b815260206004820181905260248201527f4f776e61626c653a2063616c6c6572206973206e6f7420746865206f776e657260448201526064016108a9565b600980546001600160a01b038381166001600160a01b0319831681179093556040519116919082907f8be0079c531659141344cd1fd0a4f28419497f9722a3daafe3b4186f6b6457e090600090a35050565b6001600160a01b038216611ab95760405162461bcd60e51b815260206004820152602a60248201527f455243333532353a20617070726f76652076616c756520746f20746865207a65604482015269726f206164647265737360b01b60648201526084016108a9565b611ac38284612362565b611b2957600083815260066020526040902054600580549091908110611aeb57611aeb612d5d565b60009182526020808320600692909202909101600501805460018101825590835291200180546001600160a01b0319166001600160a01b0384161790555b60008381526004602090815260408083206001600160a01b038616808552908352928190208490555183815285917f621b050de0ad08b51d19b48b3e6df75348c4de6bdd93e81b252ca62e28265b1b91015b60405180910390a3505050565b816001600160a01b0316836001600160a01b031603611be95760405162461bcd60e51b815260206004820152601a60248201527f455243333532353a20617070726f766520746f2063616c6c657200000000000060448201526064016108a9565b6001600160a01b0383811660008181526007602090815260408083209487168084526002909501825291829020805460ff191686151590811790915591519182527f17307eab39ab6107e8899845ad3d59bd9653f200f220920489ca2b5937696c319101611b7b565b611c5b826111c2565b6000611c6683610c8b565b90506000611c7384610acb565b905061150b8484611f11565b611c8a848484611843565b611c9684848484612435565b610e6e5760405162461bcd60e51b815260206004820152602760248201527f455243333532353a207472616e7366657220746f206e6f6e204552433732315260448201526632b1b2b4bb32b960c91b60648201526084016108a9565b60606107816001600160a01b03831660146125e2565b600554600090158015906107815750600082815260066020526040902054600580548492908110611d3b57611d3b612d5d565b9060005260206000209060060201600001541492915050565b60008072184f03e93ff9f4daa797ed6e38ed64bf6a1f0160401b8310611d935772184f03e93ff9f4daa797ed6e38ed64bf6a1f0160401b830492506040015b6d04ee2d6d415b85acef81000000008310611dbf576d04ee2d6d415b85acef8100000000830492506020015b662386f26fc100008310611ddd57662386f26fc10000830492506010015b6305f5e1008310611df5576305f5e100830492506008015b6127108310611e0957612710830492506004015b60648310611e1b576064830492506002015b600a83106107815760010192915050565b6000611e3c600380546001019055565b5060035490565b505050505050565b6040805160c081018252838152602080820184905260008284018190526001600160a01b038716606084015260808301819052835181815291820190935260a08201529050611e998161277e565b611ea384846122d9565b60405183906001600160a01b038616906000907fddf252ad1be2c89b69c2b068fc378daa952ba7f163c4a11628f55a4df523b3ef908290a4816000847fe4f48c240d3b994948aa54f3e2f5fca59263dfe1d52b6e4cf39a5d249b5ccb6560405160405180910390a450505050565b600082815260066020526040902054600580548392908110611f3557611f35612d5d565b90600052602060002090600602016002016000828254611f5591906130bd565b909155505060405181815282906000907f0b2aac84f3ec956911fd78eae5311062972ff949f38412e8da39069d9f068cc69060200160405180910390a35050565b600080611fa285610c8b565b90506001600160a01b0381163b1515801561202657506040516301ffc9a760e01b8152629ce20b60e01b60048201526001600160a01b038216906301ffc9a790602401602060405180830381865afa158015612002573d6000803e3d6000fd5b505050506040513d601f19601f820116820180604052508101906120269190613118565b1561211057604051629ce20b60e01b81526001600160a01b03821690629ce20b9061205d9033908a908a908a908a90600401613135565b6020604051808303816000875af1925050508015612098575060408051601f3d908101601f1916820190925261209591810190613173565b60015b6120f5573d8080156120c6576040519150601f19603f3d011682016040523d82523d6000602084013e6120cb565b606091505b5080516000036120ed5760405162461bcd60e51b81526004016108a9906130d0565b805181602001fd5b6001600160e01b031916629ce20b60e01b149150610a189050565b50600195945050505050565b60008181526006602052604081205460058054909190811061214057612140612d5d565b600091825260208220600560069092020190810154909250905b81811015610e6e57600083600501828154811061217957612179612d5d565b60009182526020808320909101548783526004825260408084206001600160a01b039092168452915281205550806121b081613190565b91505061215a565b6000818152600660205260408120546005805490919081106121dc576121dc612d5d565b6000918252602080832060069290920290910160030180546001600160a01b0319166001600160a01b039485161790559184168152600790915260408120805490919061222b906001906130aa565b9050600082600001828154811061224457612244612d5d565b9060005260206000200154905060008360010160008681526020019081526020016000205490508184600001828154811061228157612281612d5d565b600091825260208083209091019290925583815260018601909152604080822083905586825281205583548490806122bb576122bb6131a9565b60019003818190600052602060002001600090559055505050505050565b6000818152600660205260409020546005805484929081106122fd576122fd612d5d565b6000918252602080832060069290920290910160030180546001600160a01b0319166001600160a01b03948516179055939091168152600780845260408083208054858552600182810188529285208190559286529082018155825292902090910155565b60008181526006602052604081205460058054839290811061238657612386612d5d565b6000918252602082206005600690920201015491505b8181101561242a57600084815260066020526040902054600580546001600160a01b038816929081106123d1576123d1612d5d565b906000526020600020906006020160050182815481106123f3576123f3612d5d565b6000918252602090912001546001600160a01b03160361241857600192505050610781565b8061242281613190565b91505061239c565b506000949350505050565b60006001600160a01b0384163b151580156124ba57506040516301ffc9a760e01b8152630a85bd0160e11b60048201526001600160a01b038516906301ffc9a790602401602060405180830381865afa158015612496573d6000803e3d6000fd5b505050506040513d601f19601f820116820180604052508101906124ba9190613118565b156125da57604051630a85bd0160e11b81526001600160a01b0385169063150b7a02906124f19033908990889088906004016131bf565b6020604051808303816000875af192505050801561252c575060408051601f3d908101601f1916820190925261252991810190613173565b60015b6125c0573d80801561255a576040519150601f19603f3d011682016040523d82523d6000602084013e61255f565b606091505b5080516000036120ed5760405162461bcd60e51b815260206004820152602660248201527f4552433732313a207472616e7366657220746f206e6f6e20455243373231526560448201526531b2b4bb32b960d11b60648201526084016108a9565b6001600160e01b031916630a85bd0160e11b149050610a18565b506001610a18565b606060006125f18360026131fc565b6125fc9060026130bd565b67ffffffffffffffff81111561261457612614612bb3565b6040519080825280601f01601f19166020018201604052801561263e576020820181803683370190505b509050600360fc1b8160008151811061265957612659612d5d565b60200101906001600160f81b031916908160001a905350600f60fb1b8160018151811061268857612688612d5d565b60200101906001600160f81b031916908160001a90535060006126ac8460026131fc565b6126b79060016130bd565b90505b600181111561272f576f181899199a1a9b1b9c1cb0b131b232b360811b85600f16601081106126eb576126eb612d5d565b1a60f81b82828151811061270157612701612d5d565b60200101906001600160f81b031916908160001a90535060049490941c9361272881613213565b90506126ba565b5083156109d75760405162461bcd60e51b815260206004820181905260248201527f537472696e67733a20686578206c656e67746820696e73756666696369656e7460448201526064016108a9565b600580548251600090815260066020818152604080842085905560018501865594909252845192027f036b6384b5eca791c62761152d0c79bb0604c104a5fb6f4eb0703f3154bb3db08101928355818501517f036b6384b5eca791c62761152d0c79bb0604c104a5fb6f4eb0703f3154bb3db1820155928401517f036b6384b5eca791c62761152d0c79bb0604c104a5fb6f4eb0703f3154bb3db284015560608401517f036b6384b5eca791c62761152d0c79bb0604c104a5fb6f4eb0703f3154bb3db3840180546001600160a01b039283166001600160a01b03199182161790915560808601517f036b6384b5eca791c62761152d0c79bb0604c104a5fb6f4eb0703f3154bb3db48601805491909316911617905560a084015180518594610e6e937f036b6384b5eca791c62761152d0c79bb0604c104a5fb6f4eb0703f3154bb3db590910192019082805482825590600052602060002090810192821561291d579160200282015b8281111561291d57825182546001600160a01b0319166001600160a01b039091161782556020909201916001909101906128e8565b5061292992915061292d565b5090565b5b80821115612929576000815560010161292e565b6001600160e01b031981168114610a9757600080fd5b60006020828403121561296a57600080fd5b81356109d781612942565b60005b83811015612990578181015183820152602001612978565b50506000910152565b600081518084526129b1816020860160208601612975565b601f01601f19169290920160200192915050565b6020815260006109d76020830184612999565b6000602082840312156129ea57600080fd5b5035919050565b80356001600160a01b0381168114610d2257600080fd5b60008060408385031215612a1b57600080fd5b612a24836129f1565b946020939093013593505050565b600080600060608486031215612a4757600080fd5b83359250612a57602085016129f1565b9150604084013590509250925092565b600080600060608486031215612a7c57600080fd5b612a85846129f1565b9250612a57602085016129f1565b600080600060608486031215612aa857600080fd5b505081359360208301359350604090920135919050565b60008060208385031215612ad257600080fd5b823567ffffffffffffffff80821115612aea57600080fd5b818501915085601f830112612afe57600080fd5b813581811115612b0d57600080fd5b866020828501011115612b1f57600080fd5b60209290920196919550909350505050565b600060208284031215612b4357600080fd5b6109d7826129f1565b8015158114610a9757600080fd5b60008060408385031215612b6d57600080fd5b612b76836129f1565b91506020830135612b8681612b4c565b809150509250929050565b60008060408385031215612ba457600080fd5b50508035926020909101359150565b634e487b7160e01b600052604160045260246000fd5b604051601f8201601f1916810167ffffffffffffffff81118282101715612bf257612bf2612bb3565b604052919050565b600067ffffffffffffffff821115612c1457612c14612bb3565b50601f01601f191660200190565b60008060008060808587031215612c3857600080fd5b612c41856129f1565b9350612c4f602086016129f1565b925060408501359150606085013567ffffffffffffffff811115612c7257600080fd5b8501601f81018713612c8357600080fd5b8035612c96612c9182612bfa565b612bc9565b818152886020838501011115612cab57600080fd5b8160208401602083013760006020838301015280935050505092959194509250565b60008060408385031215612ce057600080fd5b82359150612cf0602084016129f1565b90509250929050565b60008060408385031215612d0c57600080fd5b612d15836129f1565b9150612cf0602084016129f1565b600181811c90821680612d3757607f821691505b602082108103612d5757634e487b7160e01b600052602260045260246000fd5b50919050565b634e487b7160e01b600052603260045260246000fd5b60208082526022908201527f455243333532353a20617070726f76616c20746f2063757272656e74206f776e60408201526132b960f11b606082015260800190565b60208082526039908201527f455243333532353a20617070726f76652063616c6c6572206973206e6f74206f60408201527f776e6572206e6f7220617070726f76656420666f7220616c6c00000000000000606082015260800190565b60008351612e24818460208801612975565b64736c6f742f60d81b9083019081528351612e46816005840160208801612975565b01600501949350505050565b600060208284031215612e6457600080fd5b815167ffffffffffffffff811115612e7b57600080fd5b8201601f81018413612e8c57600080fd5b8051612e9a612c9182612bfa565b818152856020838501011115612eaf57600080fd5b612ec0826020830160208601612975565b95945050505050565b60208082526032908201527f455243333532353a207472616e736665722063616c6c6572206973206e6f74206040820152711bdddb995c881b9bdc88185c1c1c9bdd995960721b606082015260800190565b601f8211156108f457600081815260208120601f850160051c81016020861015612f425750805b601f850160051c820191505b81811015611e4357828155600101612f4e565b67ffffffffffffffff831115612f7957612f79612bb3565b612f8d83612f878354612d23565b83612f1b565b6000601f841160018114612fc15760008515612fa95750838201355b600019600387901b1c1916600186901b1783556117bb565b600083815260209020601f19861690835b82811015612ff25786850135825560209485019460019092019101612fd2565b508682101561300f5760001960f88860031b161c19848701351681555b505060018560011b0183555050505050565b60008351613033818460208801612975565b835190830190613047818360208801612975565b01949350505050565b60008351613062818460208801612975565b68636f6e74726163742f60b81b9083019081528351613088816009840160208801612975565b01600901949350505050565b634e487b7160e01b600052601160045260246000fd5b8181038181111561078157610781613094565b8082018082111561078157610781613094565b60208082526028908201527f455243333532353a207472616e7366657220746f206e6f6e20455243333532356040820152672932b1b2b4bb32b960c11b606082015260800190565b60006020828403121561312a57600080fd5b81516109d781612b4c565b60018060a01b038616815284602082015283604082015282606082015260a06080820152600061316860a0830184612999565b979650505050505050565b60006020828403121561318557600080fd5b81516109d781612942565b6000600182016131a2576131a2613094565b5060010190565b634e487b7160e01b600052603160045260246000fd5b6001600160a01b03858116825284166020820152604081018390526080606082018190526000906131f290830184612999565b9695505050505050565b808202811582820484141761078157610781613094565b60008161322257613222613094565b50600019019056fea2646970667358221220142761c5b7618f6d554d09bf586ef640c71e897f395725e0f6a861546e02d43d64736f6c63430008120033",
  "linkReferences": {},
  "deployedLinkReferences": {}
}