{
  "_format": "hh-sol-artifact-1",
  "contractName": "ERC3525",
  "sourceName": "contracts/ERC3525.sol",
  "abi": [
    {
      "inputs": [
        {
          "internalType": "string",
          "name": "name_",
          "type": "string"
        },
        {
          "internalType": "string",
          "name": "symbol_",
          "type": "string"
        },
        {
          "internalType": "uint8",
          "name": "decimals_",
          "type": "uint8"
        }
      ],
      "stateMutability": "nonpayable",
      "type": "constructor"
    },
    {
      "anonymous": false,
      "inputs": [
        {
          "indexed": true,
          "internalType": "address",
          "name": "_owner",
          "type": "address"
        },
        {
          "indexed": true,
          "internalType": "address",
          "name": "_approved",
          "type": "address"
        },
        {
          "indexed": true,
          "internalType": "uint256",
          "name": "_tokenId",
          "type": "uint256"
        }
      ],
      "name": "Approval",
      "type": "event"
    },
    {
      "anonymous": false,
      "inputs": [
        {
          "indexed": true,
          "internalType": "address",
          "name": "_owner",
          "type": "address"
        },
        {
          "indexed": true,
          "internalType": "address",
          "name": "_operator",
          "type": "address"
        },
        {
          "indexed": false,
          "internalType": "bool",
          "name": "_approved",
          "type": "bool"
        }
      ],
      "name": "ApprovalForAll",
      "type": "event"
    },
    {
      "anonymous": false,
      "inputs": [
        {
          "indexed": true,
          "internalType": "uint256",
          "name": "_tokenId",
          "type": "uint256"
        },
        {
          "indexed": true,
          "internalType": "address",
          "name": "_operator",
          "type": "address"
        },
        {
          "indexed": false,
          "internalType": "uint256",
          "name": "_value",
          "type": "uint256"
        }
      ],
      "name": "ApprovalValue",
      "type": "event"
    },
    {
      "anonymous": false,
      "inputs": [
        {
          "indexed": true,
          "internalType": "address",
          "name": "metadataDescriptor",
          "type": "address"
        }
      ],
      "name": "SetMetadataDescriptor",
      "type": "event"
    },
    {
      "anonymous": false,
      "inputs": [
        {
          "indexed": true,
          "internalType": "uint256",
          "name": "_tokenId",
          "type": "uint256"
        },
        {
          "indexed": true,
          "internalType": "uint256",
          "name": "_oldSlot",
          "type": "uint256"
        },
        {
          "indexed": true,
          "internalType": "uint256",
          "name": "_newSlot",
          "type": "uint256"
        }
      ],
      "name": "SlotChanged",
      "type": "event"
    },
    {
      "anonymous": false,
      "inputs": [
        {
          "indexed": true,
          "internalType": "address",
          "name": "_from",
          "type": "address"
        },
        {
          "indexed": true,
          "internalType": "address",
          "name": "_to",
          "type": "address"
        },
        {
          "indexed": true,
          "internalType": "uint256",
          "name": "_tokenId",
          "type": "uint256"
        }
      ],
      "name": "Transfer",
      "type": "event"
    },
    {
      "anonymous": false,
      "inputs": [
        {
          "indexed": true,
          "internalType": "uint256",
          "name": "_fromTokenId",
          "type": "uint256"
        },
        {
          "indexed": true,
          "internalType": "uint256",
          "name": "_toTokenId",
          "type": "uint256"
        },
        {
          "indexed": false,
          "internalType": "uint256",
          "name": "_value",
          "type": "uint256"
        }
      ],
      "name": "TransferValue",
      "type": "event"
    },
    {
      "inputs": [
        {
          "internalType": "uint256",
          "name": "tokenId_",
          "type": "uint256"
        },
        {
          "internalType": "address",
          "name": "operator_",
          "type": "address"
        }
      ],
      "name": "allowance",
      "outputs": [
        {
          "internalType": "uint256",
          "name": "",
          "type": "uint256"
        }
      ],
      "stateMutability": "view",
      "type": "function"
    },
    {
      "inputs": [
        {
          "internalType": "address",
          "name": "to_",
          "type": "address"
        },
        {
          "internalType": "uint256",
          "name": "tokenId_",
          "type": "uint256"
        }
      ],
      "name": "approve",
      "outputs": [],
      "stateMutability": "payable",
      "type": "function"
    },
    {
      "inputs": [
        {
          "internalType": "uint256",
          "name": "tokenId_",
          "type": "uint256"
        },
        {
          "internalType": "address",
          "name": "to_",
          "type": "address"
        },
        {
          "internalType": "uint256",
          "name": "value_",
          "type": "uint256"
        }
      ],
      "name": "approve",
      "outputs": [],
      "stateMutability": "payable",
      "type": "function"
    },
    {
      "inputs": [
        {
          "internalType": "address",
          "name": "owner_",
          "type": "address"
        }
      ],
      "name": "balanceOf",
      "outputs": [
        {
          "internalType": "uint256",
          "name": "balance",
          "type": "uint256"
        }
      ],
      "stateMutability": "view",
      "type": "function"
    },
    {
      "inputs": [
        {
          "internalType": "uint256",
          "name": "tokenId_",
          "type": "uint256"
        }
      ],
      "name": "balanceOf",
      "outputs": [
        {
          "internalType": "uint256",
          "name": "",
          "type": "uint256"
        }
      ],
      "stateMutability": "view",
      "type": "function"
    },
    {
      "inputs": [],
      "name": "contractURI",
      "outputs": [
        {
          "internalType": "string",
          "name": "",
          "type": "string"
        }
      ],
      "stateMutability": "view",
      "type": "function"
    },
    {
      "inputs": [
        {
          "internalType": "uint256",
          "name": "tokenId_",
          "type": "uint256"
        }
      ],
      "name": "getApproved",
      "outputs": [
        {
          "internalType": "address",
          "name": "",
          "type": "address"
        }
      ],
      "stateMutability": "view",
      "type": "function"
    },
    {
      "inputs": [
        {
          "internalType": "address",
          "name": "owner_",
          "type": "address"
        },
        {
          "internalType": "address",
          "name": "operator_",
          "type": "address"
        }
      ],
      "name": "isApprovedForAll",
      "outputs": [
        {
          "internalType": "bool",
          "name": "",
          "type": "bool"
        }
      ],
      "stateMutability": "view",
      "type": "function"
    },
    {
      "inputs": [],
      "name": "metadataDescriptor",
      "outputs": [
        {
          "internalType": "contract IERC3525MetadataDescriptor",
          "name": "",
          "type": "address"
        }
      ],
      "stateMutability": "view",
      "type": "function"
    },
    {
      "inputs": [],
      "name": "name",
      "outputs": [
        {
          "internalType": "string",
          "name": "",
          "type": "string"
        }
      ],
      "stateMutability": "view",
      "type": "function"
    },
    {
      "inputs": [
        {
          "internalType": "uint256",
          "name": "tokenId_",
          "type": "uint256"
        }
      ],
      "name": "ownerOf",
      "outputs": [
        {
          "internalType": "address",
          "name": "owner_",
          "type": "address"
        }
      ],
      "stateMutability": "view",
      "type": "function"
    },
    {
      "inputs": [
        {
          "internalType": "address",
          "name": "from_",
          "type": "address"
        },
        {
          "internalType": "address",
          "name": "to_",
          "type": "address"
        },
        {
          "internalType": "uint256",
          "name": "tokenId_",
          "type": "uint256"
        }
      ],
      "name": "safeTransferFrom",
      "outputs": [],
      "stateMutability": "payable",
      "type": "function"
    },
    {
      "inputs": [
        {
          "internalType": "address",
          "name": "from_",
          "type": "address"
        },
        {
          "internalType": "address",
          "name": "to_",
          "type": "address"
        },
        {
          "internalType": "uint256",
          "name": "tokenId_",
          "type": "uint256"
        },
        {
          "internalType": "bytes",
          "name": "data_",
          "type": "bytes"
        }
      ],
      "name": "safeTransferFrom",
      "outputs": [],
      "stateMutability": "payable",
      "type": "function"
    },
    {
      "inputs": [
        {
          "internalType": "address",
          "name": "operator_",
          "type": "address"
        },
        {
          "internalType": "bool",
          "name": "approved_",
          "type": "bool"
        }
      ],
      "name": "setApprovalForAll",
      "outputs": [],
      "stateMutability": "nonpayable",
      "type": "function"
    },
    {
      "inputs": [
        {
          "internalType": "uint256",
          "name": "tokenId_",
          "type": "uint256"
        }
      ],
      "name": "slotOf",
      "outputs": [
        {
          "internalType": "uint256",
          "name": "",
          "type": "uint256"
        }
      ],
      "stateMutability": "view",
      "type": "function"
    },
    {
      "inputs": [
        {
          "internalType": "uint256",
          "name": "slot_",
          "type": "uint256"
        }
      ],
      "name": "slotURI",
      "outputs": [
        {
          "internalType": "string",
          "name": "",
          "type": "string"
        }
      ],
      "stateMutability": "view",
      "type": "function"
    },
    {
      "inputs": [
        {
          "internalType": "bytes4",
          "name": "interfaceId",
          "type": "bytes4"
        }
      ],
      "name": "supportsInterface",
      "outputs": [
        {
          "internalType": "bool",
          "name": "",
          "type": "bool"
        }
      ],
      "stateMutability": "view",
      "type": "function"
    },
    {
      "inputs": [],
      "name": "symbol",
      "outputs": [
        {
          "internalType": "string",
          "name": "",
          "type": "string"
        }
      ],
      "stateMutability": "view",
      "type": "function"
    },
    {
      "inputs": [
        {
          "internalType": "uint256",
          "name": "index_",
          "type": "uint256"
        }
      ],
      "name": "tokenByIndex",
      "outputs": [
        {
          "internalType": "uint256",
          "name": "",
          "type": "uint256"
        }
      ],
      "stateMutability": "view",
      "type": "function"
    },
    {
      "inputs": [
        {
          "internalType": "address",
          "name": "owner_",
          "type": "address"
        },
        {
          "internalType": "uint256",
          "name": "index_",
          "type": "uint256"
        }
      ],
      "name": "tokenOfOwnerByIndex",
      "outputs": [
        {
          "internalType": "uint256",
          "name": "",
          "type": "uint256"
        }
      ],
      "stateMutability": "view",
      "type": "function"
    },
    {
      "inputs": [
        {
          "internalType": "uint256",
          "name": "tokenId_",
          "type": "uint256"
        }
      ],
      "name": "tokenURI",
      "outputs": [
        {
          "internalType": "string",
          "name": "",
          "type": "string"
        }
      ],
      "stateMutability": "view",
      "type": "function"
    },
    {
      "inputs": [],
      "name": "totalSupply",
      "outputs": [
        {
          "internalType": "uint256",
          "name": "",
          "type": "uint256"
        }
      ],
      "stateMutability": "view",
      "type": "function"
    },
    {
      "inputs": [
        {
          "internalType": "uint256",
          "name": "fromTokenId_",
          "type": "uint256"
        },
        {
          "internalType": "address",
          "name": "to_",
          "type": "address"
        },
        {
          "internalType": "uint256",
          "name": "value_",
          "type": "uint256"
        }
      ],
      "name": "transferFrom",
      "outputs": [
        {
          "internalType": "uint256",
          "name": "",
          "type": "uint256"
        }
      ],
      "stateMutability": "payable",
      "type": "function"
    },
    {
      "inputs": [
        {
          "internalType": "address",
          "name": "from_",
          "type": "address"
        },
        {
          "internalType": "address",
          "name": "to_",
          "type": "address"
        },
        {
          "internalType": "uint256",
          "name": "tokenId_",
          "type": "uint256"
        }
      ],
      "name": "transferFrom",
      "outputs": [],
      "stateMutability": "payable",
      "type": "function"
    },
    {
      "inputs": [
        {
          "internalType": "uint256",
          "name": "fromTokenId_",
          "type": "uint256"
        },
        {
          "internalType": "uint256",
          "name": "toTokenId_",
          "type": "uint256"
        },
        {
          "internalType": "uint256",
          "name": "value_",
          "type": "uint256"
        }
      ],
      "name": "transferFrom",
      "outputs": [],
      "stateMutability": "payable",
      "type": "function"
    },
    {
      "inputs": [],
      "name": "valueDecimals",
      "outputs": [
        {
          "internalType": "uint8",
          "name": "",
          "type": "uint8"
        }
      ],
      "stateMutability": "view",
      "type": "function"
    }
  ],
  "bytecode": "0x60806040523480156200001157600080fd5b5060405162002f0f38038062002f0f833981016040819052620000349162000134565b600062000042848262000248565b50600162000051838262000248565b506002805460ff191660ff9290921691909117905550620003149050565b634e487b7160e01b600052604160045260246000fd5b600082601f8301126200009757600080fd5b81516001600160401b0380821115620000b457620000b46200006f565b604051601f8301601f19908116603f01168101908282118183101715620000df57620000df6200006f565b81604052838152602092508683858801011115620000fc57600080fd5b600091505b8382101562000120578582018301518183018401529082019062000101565b600093810190920192909252949350505050565b6000806000606084860312156200014a57600080fd5b83516001600160401b03808211156200016257600080fd5b620001708783880162000085565b945060208601519150808211156200018757600080fd5b50620001968682870162000085565b925050604084015160ff81168114620001ae57600080fd5b809150509250925092565b600181811c90821680620001ce57607f821691505b602082108103620001ef57634e487b7160e01b600052602260045260246000fd5b50919050565b601f8211156200024357600081815260208120601f850160051c810160208610156200021e5750805b601f850160051c820191505b818110156200023f578281556001016200022a565b5050505b505050565b81516001600160401b038111156200026457620002646200006f565b6200027c81620002758454620001b9565b84620001f5565b602080601f831160018114620002b457600084156200029b5750858301515b600019600386901b1c1916600185901b1785556200023f565b600085815260208120601f198616915b82811015620002e557888601518255948401946001909101908401620002c4565b5085821015620003045787850151600019600388901b60f8161c191681555b5050505050600190811b01905550565b612beb80620003246000396000f3fe6080604052600436106101815760003560e01c80634f6ccce7116100d15780639cc7f7081161008a578063c87b56dd11610064578063c87b56dd14610416578063e345e0bc14610436578063e8a3d48514610456578063e985e9c51461046b57600080fd5b80639cc7f708146103c3578063a22cb465146103e3578063b88d4fde1461040357600080fd5b80634f6ccce71461031b5780636352211e1461033b57806370a082311461035b578063840f71131461037b5780638cb0a5111461039b57806395d89b41146103ae57600080fd5b806318160ddd1161013e5780632f745c59116101185780632f745c59146102b3578063310ed7f0146102d35780633e7e8669146102e657806342842e0e1461030857600080fd5b806318160ddd1461026b57806323b872dd14610280578063263f3e7e1461029357600080fd5b806301ffc9a71461018657806306fdde03146101bb578063081812fc146101dd578063095ea7b31461021557806309c3dd871461022a5780630f485c021461024a575b600080fd5b34801561019257600080fd5b506101a66101a136600461247d565b6104b8565b60405190151581526020015b60405180910390f35b3480156101c757600080fd5b506101d061055b565b6040516101b291906124ea565b3480156101e957600080fd5b506101fd6101f83660046124fd565b6105ed565b6040516001600160a01b0390911681526020016101b2565b61022861022336600461252d565b61063f565b005b34801561023657600080fd5b506101d06102453660046124fd565b6106cd565b61025d610258366004612557565b6107bf565b6040519081526020016101b2565b34801561027757600080fd5b5060055461025d565b61022861028e36600461258c565b610801565b34801561029f57600080fd5b5061025d6102ae3660046124fd565b610832565b3480156102bf57600080fd5b5061025d6102ce36600461252d565b61087a565b6102286102e13660046125b8565b61091b565b3480156102f257600080fd5b5060025460405160ff90911681526020016101b2565b61022861031636600461258c565b610931565b34801561032757600080fd5b5061025d6103363660046124fd565b61094c565b34801561034757600080fd5b506101fd6103563660046124fd565b6109dd565b34801561036757600080fd5b5061025d6103763660046125e4565b610a79565b34801561038757600080fd5b506008546101fd906001600160a01b031681565b6102286103a9366004612557565b610b01565b3480156103ba57600080fd5b506101d0610b88565b3480156103cf57600080fd5b5061025d6103de3660046124fd565b610b97565b3480156103ef57600080fd5b506102286103fe36600461260d565b610bdf565b6102286104113660046126b3565b610bee565b34801561042257600080fd5b506101d06104313660046124fd565b610c20565b34801561044257600080fd5b5061025d61045136600461275e565b610cbf565b34801561046257600080fd5b506101d0610cf3565b34801561047757600080fd5b506101a661048636600461278a565b6001600160a01b0391821660009081526007602090815260408083209390941682526002909201909152205460ff1690565b60006001600160e01b031982166301ffc9a760e01b14806104e957506001600160e01b03198216630354d60560e61b145b8061050457506001600160e01b031982166380ac58cd60e01b145b8061051f57506001600160e01b031982166370b0048160e11b145b8061053a57506001600160e01b0319821663780e9d6360e01b145b8061055557506001600160e01b03198216635b5e139f60e01b145b92915050565b60606000805461056a906127b4565b80601f0160208091040260200160405190810160405280929190818152602001828054610596906127b4565b80156105e35780601f106105b8576101008083540402835291602001916105e3565b820191906000526020600020905b8154815290600101906020018083116105c657829003601f168201915b5050505050905090565b60006105f882610ded565b60008281526006602052604090205460058054909190811061061c5761061c6127ee565b60009182526020909120600460069092020101546001600160a01b031692915050565b600061064a826109dd565b9050806001600160a01b0316836001600160a01b0316036106865760405162461bcd60e51b815260040161067d90612804565b60405180910390fd5b336001600160a01b03821614806106a257506106a28133610486565b6106be5760405162461bcd60e51b815260040161067d90612846565b6106c88383610e41565b505050565b606060006106e660408051602081019091526000815290565b6008549091506001600160a01b031661074657600081511161071757604051806020016040528060008152506107b8565b8061072184610ed8565b6040516020016107329291906128a3565b6040516020818303038152906040526107b8565b600854604051633601bfc560e11b8152600481018590526001600160a01b0390911690636c037f8a906024015b600060405180830381865afa158015610790573d6000803e3d6000fd5b505050506040513d6000823e601f3d908101601f191682016040526107b891908101906128e3565b9392505050565b60006107cc338584610f6b565b60006107d785610ffb565b90506107ee84826107e788610832565b6000611005565b6107f985828561112f565b949350505050565b61080b33826113e1565b6108275760405162461bcd60e51b815260040161067d9061295a565b6106c8838383611449565b600061083d82610ded565b600082815260066020526040902054600580549091908110610861576108616127ee565b9060005260206000209060060201600101549050919050565b600061088583610a79565b82106108de5760405162461bcd60e51b815260206004820152602260248201527f455243333532353a206f776e657220696e646578206f7574206f6620626f756e604482015261647360f01b606482015260840161067d565b6001600160a01b0383166000908152600760205260409020805483908110610908576109086127ee565b9060005260206000200154905092915050565b610926338483610f6b565b6106c883838361112f565b6106c883838360405180602001604052806000815250610bee565b600061095760055490565b82106109b15760405162461bcd60e51b815260206004820152602360248201527f455243333532353a20676c6f62616c20696e646578206f7574206f6620626f756044820152626e647360e81b606482015260840161067d565b600582815481106109c4576109c46127ee565b9060005260206000209060060201600001549050919050565b60006109e882610ded565b600082815260066020526040902054600580549091908110610a0c57610a0c6127ee565b60009182526020909120600360069092020101546001600160a01b0316905080610a745760405162461bcd60e51b8152602060048201526019602482015278115490cccd4c8d4e881a5b9d985b1a59081d1bdad95b881251603a1b604482015260640161067d565b919050565b60006001600160a01b038216610ae55760405162461bcd60e51b815260206004820152602b60248201527f455243333532353a2062616c616e636520717565727920666f7220746865207a60448201526a65726f206164647265737360a81b606482015260840161067d565b506001600160a01b031660009081526007602052604090205490565b6000610b0c846109dd565b9050806001600160a01b0316836001600160a01b031603610b3f5760405162461bcd60e51b815260040161067d90612804565b336001600160a01b0382161480610b5b5750610b5b8133610486565b610b775760405162461bcd60e51b815260040161067d90612846565b610b828484846115aa565b50505050565b60606001805461056a906127b4565b6000610ba282610ded565b600082815260066020526040902054600580549091908110610bc657610bc66127ee565b9060005260206000209060060201600201549050919050565b610bea3383836116e2565b5050565b610bf833836113e1565b610c145760405162461bcd60e51b815260040161067d9061295a565b610b82848484846117ac565b6060610c2b82610ded565b6000610c4260408051602081019091526000815290565b6008549091506001600160a01b0316610c8e576000815111610c7357604051806020016040528060008152506107b8565b80610c7d84610ed8565b6040516020016107329291906129ac565b6008546040516344a5a61760e11b8152600481018590526001600160a01b039091169063894b4c2e90602401610773565b6000610cca83610ded565b5060009182526004602090815260408084206001600160a01b0393909316845291905290205490565b60606000610d0c60408051602081019091526000815290565b6008549091506001600160a01b0316610d6c576000815111610d3d5760405180602001604052806000815250610de7565b80610d473061181f565b604051602001610d589291906129db565b604051602081830303815290604052610de7565b600860009054906101000a90046001600160a01b03166001600160a01b031663725fa09c6040518163ffffffff1660e01b8152600401600060405180830381865afa158015610dbf573d6000803e3d6000fd5b505050506040513d6000823e601f3d908101601f19168201604052610de791908101906128e3565b91505090565b610df681611835565b610e3e5760405162461bcd60e51b8152602060048201526019602482015278115490cccd4c8d4e881a5b9d985b1a59081d1bdad95b881251603a1b604482015260640161067d565b50565b600081815260066020526040902054600580548492908110610e6557610e656127ee565b6000918252602090912060069091020160040180546001600160a01b0319166001600160a01b0392831617905581908316610e9f826109dd565b6001600160a01b03167f8c5be1e5ebec7d5bd14f71427d1e84f3dd0314c0f7b2291e5b200ac8c7c3b92560405160405180910390a45050565b60606000610ee583611881565b600101905060008167ffffffffffffffff811115610f0557610f05612644565b6040519080825280601f01601f191660200182016040528015610f2f576020820181803683370190505b5090508181016020015b600019016f181899199a1a9b1b9c1cb0b131b232b360811b600a86061a8153600a8504945084610f3957509392505050565b6000610f778385610cbf565b9050610f8384846113e1565b158015610f9257506000198114155b15610b825781811015610fe75760405162461bcd60e51b815260206004820152601f60248201527f455243333532353a20696e73756666696369656e7420616c6c6f77616e636500604482015260640161067d565b610b828385610ff68585612a35565b6115aa565b6000610555611959565b6001600160a01b0384166110655760405162461bcd60e51b815260206004820152602160248201527f455243333532353a206d696e7420746f20746865207a65726f206164647265736044820152607360f81b606482015260840161067d565b826000036110bf5760405162461bcd60e51b815260206004820152602160248201527f455243333532353a2063616e6e6f74206d696e74207a65726f20746f6b656e496044820152601960fa1b606482015260840161067d565b6110c883611835565b156111155760405162461bcd60e51b815260206004820152601d60248201527f455243333532353a20746f6b656e20616c7265616479206d696e746564000000604482015260640161067d565b611120848484611970565b61112a8382611a36565b610b82565b61113883611835565b6111945760405162461bcd60e51b815260206004820152602760248201527f455243333532353a207472616e736665722066726f6d20696e76616c696420746044820152661bdad95b88125160ca1b606482015260840161067d565b61119d82611835565b6111f75760405162461bcd60e51b815260206004820152602560248201527f455243333532353a207472616e7366657220746f20696e76616c696420746f6b604482015264195b88125160da1b606482015260840161067d565b60008381526006602052604081205460058054909190811061121b5761121b6127ee565b9060005260206000209060060201905060006005600660008681526020019081526020016000205481548110611253576112536127ee565b9060005260206000209060060201905082826002015410156112ca5760405162461bcd60e51b815260206004820152602a60248201527f455243333532353a20696e73756666696369656e742062616c616e636520666f60448201526939103a3930b739b332b960b11b606482015260840161067d565b80600101548260010154146113385760405162461bcd60e51b815260206004820152602e60248201527f455243333532353a207472616e7366657220746f20746f6b656e20776974682060448201526d191a5999995c995b9d081cdb1bdd60921b606482015260840161067d565b8282600201600082825461134c9190612a35565b92505081905550828160020160008282546113679190612a48565b9091555050604051838152849086907f0b2aac84f3ec956911fd78eae5311062972ff949f38412e8da39069d9f068cc69060200160405180910390a36113be85858560405180602001604052806000815250611abb565b6113da5760405162461bcd60e51b815260040161067d90612a5b565b5050505050565b60006113ec82610ded565b60006113f7836109dd565b9050806001600160a01b0316846001600160a01b0316148061141e575061141e8185610486565b806107f95750836001600160a01b0316611437846105ed565b6001600160a01b031614949350505050565b826001600160a01b031661145c826109dd565b6001600160a01b0316146114be5760405162461bcd60e51b8152602060048201526024808201527f455243333532353a207472616e736665722066726f6d20696e76616c6964206f6044820152633bb732b960e11b606482015260840161067d565b6001600160a01b0382166115225760405162461bcd60e51b815260206004820152602560248201527f455243333532353a207472616e7366657220746f20746865207a65726f206164604482015264647265737360d81b606482015260840161067d565b600061152d82610832565b9050600061153a83610b97565b9050611547600084610e41565b61155083611c41565b61155a8584611cdd565b6115648484611dfe565b82846001600160a01b0316866001600160a01b03167fddf252ad1be2c89b69c2b068fc378daa952ba7f163c4a11628f55a4df523b3ef60405160405180910390a46113da565b6001600160a01b0382166116135760405162461bcd60e51b815260206004820152602a60248201527f455243333532353a20617070726f76652076616c756520746f20746865207a65604482015269726f206164647265737360b01b606482015260840161067d565b61161d8284611e87565b61168357600083815260066020526040902054600580549091908110611645576116456127ee565b60009182526020808320600692909202909101600501805460018101825590835291200180546001600160a01b0319166001600160a01b0384161790555b60008381526004602090815260408083206001600160a01b038616808552908352928190208490555183815285917f621b050de0ad08b51d19b48b3e6df75348c4de6bdd93e81b252ca62e28265b1b91015b60405180910390a3505050565b816001600160a01b0316836001600160a01b0316036117435760405162461bcd60e51b815260206004820152601a60248201527f455243333532353a20617070726f766520746f2063616c6c6572000000000000604482015260640161067d565b6001600160a01b0383811660008181526007602090815260408083209487168084526002909501825291829020805460ff191686151590811790915591519182527f17307eab39ab6107e8899845ad3d59bd9653f200f220920489ca2b5937696c3191016116d5565b6117b7848484611449565b6117c384848484611f5a565b610b825760405162461bcd60e51b815260206004820152602760248201527f455243333532353a207472616e7366657220746f206e6f6e204552433732315260448201526632b1b2b4bb32b960c91b606482015260840161067d565b60606105556001600160a01b0383166014612107565b600554600090158015906105555750600082815260066020526040902054600580548492908110611868576118686127ee565b9060005260206000209060060201600001541492915050565b60008072184f03e93ff9f4daa797ed6e38ed64bf6a1f0160401b83106118c05772184f03e93ff9f4daa797ed6e38ed64bf6a1f0160401b830492506040015b6d04ee2d6d415b85acef810000000083106118ec576d04ee2d6d415b85acef8100000000830492506020015b662386f26fc10000831061190a57662386f26fc10000830492506010015b6305f5e1008310611922576305f5e100830492506008015b612710831061193657612710830492506004015b60648310611948576064830492506002015b600a83106105555760010192915050565b6000611969600380546001019055565b5060035490565b6040805160c081018252838152602080820184905260008284018190526001600160a01b038716606084015260808301819052835181815291820190935260a082015290506119be816122a3565b6119c88484611dfe565b60405183906001600160a01b038616906000907fddf252ad1be2c89b69c2b068fc378daa952ba7f163c4a11628f55a4df523b3ef908290a4816000847fe4f48c240d3b994948aa54f3e2f5fca59263dfe1d52b6e4cf39a5d249b5ccb6560405160405180910390a450505050565b600082815260066020526040902054600580548392908110611a5a57611a5a6127ee565b90600052602060002090600602016002016000828254611a7a9190612a48565b909155505060405181815282906000907f0b2aac84f3ec956911fd78eae5311062972ff949f38412e8da39069d9f068cc69060200160405180910390a35050565b600080611ac7856109dd565b90506001600160a01b0381163b15158015611b4b57506040516301ffc9a760e01b8152629ce20b60e01b60048201526001600160a01b038216906301ffc9a790602401602060405180830381865afa158015611b27573d6000803e3d6000fd5b505050506040513d601f19601f82011682018060405250810190611b4b9190612aa3565b15611c3557604051629ce20b60e01b81526001600160a01b03821690629ce20b90611b829033908a908a908a908a90600401612ac0565b6020604051808303816000875af1925050508015611bbd575060408051601f3d908101601f19168201909252611bba91810190612afe565b60015b611c1a573d808015611beb576040519150601f19603f3d011682016040523d82523d6000602084013e611bf0565b606091505b508051600003611c125760405162461bcd60e51b815260040161067d90612a5b565b805181602001fd5b6001600160e01b031916629ce20b60e01b1491506107f99050565b50600195945050505050565b600081815260066020526040812054600580549091908110611c6557611c656127ee565b600091825260208220600560069092020190810154909250905b81811015610b82576000836005018281548110611c9e57611c9e6127ee565b60009182526020808320909101548783526004825260408084206001600160a01b03909216845291528120555080611cd581612b1b565b915050611c7f565b600081815260066020526040812054600580549091908110611d0157611d016127ee565b6000918252602080832060069290920290910160030180546001600160a01b0319166001600160a01b0394851617905591841681526007909152604081208054909190611d5090600190612a35565b90506000826000018281548110611d6957611d696127ee565b90600052602060002001549050600083600101600086815260200190815260200160002054905081846000018281548110611da657611da66127ee565b60009182526020808320909101929092558381526001860190915260408082208390558682528120558354849080611de057611de0612b34565b60019003818190600052602060002001600090559055505050505050565b600081815260066020526040902054600580548492908110611e2257611e226127ee565b6000918252602080832060069290920290910160030180546001600160a01b0319166001600160a01b03948516179055939091168152600780845260408083208054858552600182810188529285208190559286529082018155825292902090910155565b600081815260066020526040812054600580548392908110611eab57611eab6127ee565b6000918252602082206005600690920201015491505b81811015611f4f57600084815260066020526040902054600580546001600160a01b03881692908110611ef657611ef66127ee565b90600052602060002090600602016005018281548110611f1857611f186127ee565b6000918252602090912001546001600160a01b031603611f3d57600192505050610555565b80611f4781612b1b565b915050611ec1565b506000949350505050565b60006001600160a01b0384163b15158015611fdf57506040516301ffc9a760e01b8152630a85bd0160e11b60048201526001600160a01b038516906301ffc9a790602401602060405180830381865afa158015611fbb573d6000803e3d6000fd5b505050506040513d601f19601f82011682018060405250810190611fdf9190612aa3565b156120ff57604051630a85bd0160e11b81526001600160a01b0385169063150b7a0290612016903390899088908890600401612b4a565b6020604051808303816000875af1925050508015612051575060408051601f3d908101601f1916820190925261204e91810190612afe565b60015b6120e5573d80801561207f576040519150601f19603f3d011682016040523d82523d6000602084013e612084565b606091505b508051600003611c125760405162461bcd60e51b815260206004820152602660248201527f4552433732313a207472616e7366657220746f206e6f6e20455243373231526560448201526531b2b4bb32b960d11b606482015260840161067d565b6001600160e01b031916630a85bd0160e11b1490506107f9565b5060016107f9565b60606000612116836002612b87565b612121906002612a48565b67ffffffffffffffff81111561213957612139612644565b6040519080825280601f01601f191660200182016040528015612163576020820181803683370190505b509050600360fc1b8160008151811061217e5761217e6127ee565b60200101906001600160f81b031916908160001a905350600f60fb1b816001815181106121ad576121ad6127ee565b60200101906001600160f81b031916908160001a90535060006121d1846002612b87565b6121dc906001612a48565b90505b6001811115612254576f181899199a1a9b1b9c1cb0b131b232b360811b85600f1660108110612210576122106127ee565b1a60f81b828281518110612226576122266127ee565b60200101906001600160f81b031916908160001a90535060049490941c9361224d81612b9e565b90506121df565b5083156107b85760405162461bcd60e51b815260206004820181905260248201527f537472696e67733a20686578206c656e67746820696e73756666696369656e74604482015260640161067d565b600580548251600090815260066020818152604080842085905560018501865594909252845192027f036b6384b5eca791c62761152d0c79bb0604c104a5fb6f4eb0703f3154bb3db08101928355818501517f036b6384b5eca791c62761152d0c79bb0604c104a5fb6f4eb0703f3154bb3db1820155928401517f036b6384b5eca791c62761152d0c79bb0604c104a5fb6f4eb0703f3154bb3db284015560608401517f036b6384b5eca791c62761152d0c79bb0604c104a5fb6f4eb0703f3154bb3db3840180546001600160a01b039283166001600160a01b03199182161790915560808601517f036b6384b5eca791c62761152d0c79bb0604c104a5fb6f4eb0703f3154bb3db48601805491909316911617905560a084015180518594610b82937f036b6384b5eca791c62761152d0c79bb0604c104a5fb6f4eb0703f3154bb3db5909101920190828054828255906000526020600020908101928215612442579160200282015b8281111561244257825182546001600160a01b0319166001600160a01b0390911617825560209092019160019091019061240d565b5061244e929150612452565b5090565b5b8082111561244e5760008155600101612453565b6001600160e01b031981168114610e3e57600080fd5b60006020828403121561248f57600080fd5b81356107b881612467565b60005b838110156124b557818101518382015260200161249d565b50506000910152565b600081518084526124d681602086016020860161249a565b601f01601f19169290920160200192915050565b6020815260006107b860208301846124be565b60006020828403121561250f57600080fd5b5035919050565b80356001600160a01b0381168114610a7457600080fd5b6000806040838503121561254057600080fd5b61254983612516565b946020939093013593505050565b60008060006060848603121561256c57600080fd5b8335925061257c60208501612516565b9150604084013590509250925092565b6000806000606084860312156125a157600080fd5b6125aa84612516565b925061257c60208501612516565b6000806000606084860312156125cd57600080fd5b505081359360208301359350604090920135919050565b6000602082840312156125f657600080fd5b6107b882612516565b8015158114610e3e57600080fd5b6000806040838503121561262057600080fd5b61262983612516565b91506020830135612639816125ff565b809150509250929050565b634e487b7160e01b600052604160045260246000fd5b604051601f8201601f1916810167ffffffffffffffff8111828210171561268357612683612644565b604052919050565b600067ffffffffffffffff8211156126a5576126a5612644565b50601f01601f191660200190565b600080600080608085870312156126c957600080fd5b6126d285612516565b93506126e060208601612516565b925060408501359150606085013567ffffffffffffffff81111561270357600080fd5b8501601f8101871361271457600080fd5b80356127276127228261268b565b61265a565b81815288602083850101111561273c57600080fd5b8160208401602083013760006020838301015280935050505092959194509250565b6000806040838503121561277157600080fd5b8235915061278160208401612516565b90509250929050565b6000806040838503121561279d57600080fd5b6127a683612516565b915061278160208401612516565b600181811c908216806127c857607f821691505b6020821081036127e857634e487b7160e01b600052602260045260246000fd5b50919050565b634e487b7160e01b600052603260045260246000fd5b60208082526022908201527f455243333532353a20617070726f76616c20746f2063757272656e74206f776e60408201526132b960f11b606082015260800190565b60208082526039908201527f455243333532353a20617070726f76652063616c6c6572206973206e6f74206f60408201527f776e6572206e6f7220617070726f76656420666f7220616c6c00000000000000606082015260800190565b600083516128b581846020880161249a565b64736c6f742f60d81b90830190815283516128d781600584016020880161249a565b01600501949350505050565b6000602082840312156128f557600080fd5b815167ffffffffffffffff81111561290c57600080fd5b8201601f8101841361291d57600080fd5b805161292b6127228261268b565b81815285602083850101111561294057600080fd5b61295182602083016020860161249a565b95945050505050565b60208082526032908201527f455243333532353a207472616e736665722063616c6c6572206973206e6f74206040820152711bdddb995c881b9bdc88185c1c1c9bdd995960721b606082015260800190565b600083516129be81846020880161249a565b8351908301906129d281836020880161249a565b01949350505050565b600083516129ed81846020880161249a565b68636f6e74726163742f60b81b9083019081528351612a1381600984016020880161249a565b01600901949350505050565b634e487b7160e01b600052601160045260246000fd5b8181038181111561055557610555612a1f565b8082018082111561055557610555612a1f565b60208082526028908201527f455243333532353a207472616e7366657220746f206e6f6e20455243333532356040820152672932b1b2b4bb32b960c11b606082015260800190565b600060208284031215612ab557600080fd5b81516107b8816125ff565b60018060a01b038616815284602082015283604082015282606082015260a060808201526000612af360a08301846124be565b979650505050505050565b600060208284031215612b1057600080fd5b81516107b881612467565b600060018201612b2d57612b2d612a1f565b5060010190565b634e487b7160e01b600052603160045260246000fd5b6001600160a01b0385811682528416602082015260408101839052608060608201819052600090612b7d908301846124be565b9695505050505050565b808202811582820484141761055557610555612a1f565b600081612bad57612bad612a1f565b50600019019056fea2646970667358221220b909beaa6c002141dac7c942172a063e0663486588f36e4dec3d7647a2360caa64736f6c63430008120033",
  "linkReferences": {},
  "deployedLinkReferences": {}
}